{
  "_format": "hh-sol-artifact-1",
  "contractName": "WenETHToken",
  "sourceName": "contracts/WenCore/WenETHToken.sol",
  "abi": [
    {
      "inputs": [],
      "stateMutability": "nonpayable",
      "type": "constructor"
    },
    {
      "anonymous": false,
      "inputs": [
        {
          "indexed": true,
          "internalType": "address",
          "name": "owner",
          "type": "address"
        },
        {
          "indexed": true,
          "internalType": "address",
          "name": "spender",
          "type": "address"
        },
        {
          "indexed": false,
          "internalType": "uint256",
          "name": "value",
          "type": "uint256"
        }
      ],
      "name": "Approval",
      "type": "event"
    },
    {
      "anonymous": false,
      "inputs": [
        {
          "indexed": true,
          "internalType": "address",
          "name": "previousOwner",
          "type": "address"
        },
        {
          "indexed": true,
          "internalType": "address",
          "name": "newOwner",
          "type": "address"
        }
      ],
      "name": "OwnershipTransferred",
      "type": "event"
    },
    {
      "anonymous": false,
      "inputs": [
        {
          "indexed": true,
          "internalType": "address",
          "name": "from",
          "type": "address"
        },
        {
          "indexed": true,
          "internalType": "address",
          "name": "to",
          "type": "address"
        },
        {
          "indexed": false,
          "internalType": "uint256",
          "name": "value",
          "type": "uint256"
        }
      ],
      "name": "Transfer",
      "type": "event"
    },
    {
      "inputs": [],
      "name": "BLAST",
      "outputs": [
        {
          "internalType": "contract IBlast",
          "name": "",
          "type": "address"
        }
      ],
      "stateMutability": "view",
      "type": "function"
    },
    {
      "inputs": [],
      "name": "BLASTPOINTS",
      "outputs": [
        {
          "internalType": "contract IBlastPoints",
          "name": "",
          "type": "address"
        }
      ],
      "stateMutability": "view",
      "type": "function"
    },
    {
      "inputs": [
        {
          "internalType": "address",
          "name": "",
          "type": "address"
        },
        {
          "internalType": "address",
          "name": "",
          "type": "address"
        }
      ],
      "name": "allowance",
      "outputs": [
        {
          "internalType": "uint256",
          "name": "",
          "type": "uint256"
        }
      ],
      "stateMutability": "view",
      "type": "function"
    },
    {
      "inputs": [
        {
          "internalType": "address",
          "name": "_spender",
          "type": "address"
        },
        {
          "internalType": "uint256",
          "name": "_value",
          "type": "uint256"
        }
      ],
      "name": "approve",
      "outputs": [
        {
          "internalType": "bool",
          "name": "",
          "type": "bool"
        }
      ],
      "stateMutability": "nonpayable",
      "type": "function"
    },
    {
      "inputs": [
        {
          "internalType": "address",
          "name": "",
          "type": "address"
        }
      ],
      "name": "balanceOf",
      "outputs": [
        {
          "internalType": "uint256",
          "name": "",
          "type": "uint256"
        }
      ],
      "stateMutability": "view",
      "type": "function"
    },
    {
      "inputs": [
        {
          "internalType": "address",
          "name": "_from",
          "type": "address"
        },
        {
          "internalType": "uint256",
          "name": "_value",
          "type": "uint256"
        }
      ],
      "name": "burn",
      "outputs": [
        {
          "internalType": "bool",
          "name": "",
          "type": "bool"
        }
      ],
      "stateMutability": "nonpayable",
      "type": "function"
    },
    {
      "inputs": [],
      "name": "decimals",
      "outputs": [
        {
          "internalType": "uint8",
          "name": "",
          "type": "uint8"
        }
      ],
      "stateMutability": "view",
      "type": "function"
    },
    {
      "inputs": [
        {
          "internalType": "address",
          "name": "_to",
          "type": "address"
        },
        {
          "internalType": "uint256",
          "name": "_value",
          "type": "uint256"
        }
      ],
      "name": "mint",
      "outputs": [
        {
          "internalType": "bool",
          "name": "",
          "type": "bool"
        }
      ],
      "stateMutability": "nonpayable",
      "type": "function"
    },
    {
      "inputs": [],
      "name": "name",
      "outputs": [
        {
          "internalType": "string",
          "name": "",
          "type": "string"
        }
      ],
      "stateMutability": "view",
      "type": "function"
    },
    {
      "inputs": [
        {
          "internalType": "address",
          "name": "",
          "type": "address"
        }
      ],
      "name": "operators",
      "outputs": [
        {
          "internalType": "bool",
          "name": "",
          "type": "bool"
        }
      ],
      "stateMutability": "view",
      "type": "function"
    },
    {
      "inputs": [],
      "name": "owner",
      "outputs": [
        {
          "internalType": "address",
          "name": "",
          "type": "address"
        }
      ],
      "stateMutability": "view",
      "type": "function"
    },
    {
      "inputs": [],
      "name": "renounceOwnership",
      "outputs": [],
      "stateMutability": "nonpayable",
      "type": "function"
    },
    {
      "inputs": [
        {
          "internalType": "address",
          "name": "_operator",
          "type": "address"
        }
      ],
      "name": "revokeOperator",
      "outputs": [],
      "stateMutability": "nonpayable",
      "type": "function"
    },
    {
      "inputs": [
        {
          "internalType": "address",
          "name": "_governor",
          "type": "address"
        }
      ],
      "name": "setBlastGovernor",
      "outputs": [],
      "stateMutability": "nonpayable",
      "type": "function"
    },
    {
      "inputs": [
        {
          "internalType": "address[]",
          "name": "_operators",
          "type": "address[]"
        }
      ],
      "name": "setOperator",
      "outputs": [],
      "stateMutability": "nonpayable",
      "type": "function"
    },
    {
      "inputs": [],
      "name": "symbol",
      "outputs": [
        {
          "internalType": "string",
          "name": "",
          "type": "string"
        }
      ],
      "stateMutability": "view",
      "type": "function"
    },
    {
      "inputs": [],
      "name": "totalSupply",
      "outputs": [
        {
          "internalType": "uint256",
          "name": "",
          "type": "uint256"
        }
      ],
      "stateMutability": "view",
      "type": "function"
    },
    {
      "inputs": [
        {
          "internalType": "address",
          "name": "_to",
          "type": "address"
        },
        {
          "internalType": "uint256",
          "name": "_value",
          "type": "uint256"
        }
      ],
      "name": "transfer",
      "outputs": [
        {
          "internalType": "bool",
          "name": "",
          "type": "bool"
        }
      ],
      "stateMutability": "nonpayable",
      "type": "function"
    },
    {
      "inputs": [
        {
          "internalType": "address",
          "name": "_from",
          "type": "address"
        },
        {
          "internalType": "address",
          "name": "_to",
          "type": "address"
        },
        {
          "internalType": "uint256",
          "name": "_value",
          "type": "uint256"
        }
      ],
      "name": "transferFrom",
      "outputs": [
        {
          "internalType": "bool",
          "name": "",
          "type": "bool"
        }
      ],
      "stateMutability": "nonpayable",
      "type": "function"
    },
    {
      "inputs": [
        {
          "internalType": "address",
          "name": "newOwner",
          "type": "address"
        }
      ],
      "name": "transferOwnership",
      "outputs": [],
      "stateMutability": "nonpayable",
      "type": "function"
    }
  ],
  "bytecode": "0x608060409080825234620001ca5760008054336001600160a01b0319821681178355906001600160a01b03167f8be0079c531659141344cd1fd0a4f28419497f9722a3daafe3b4186f6b6457e08380a373430000000000000000000000000000000000000291823b15620001705763784c3b3d60e11b8152818160048183875af18015620001c057620001ae575b5090803b1562000170578251634e606c4760e01b8152828160048183865af18015620001a4579083916200018c575b5050803b1562000170578180916024855180948193631d70c8d360e31b83523360048401525af18015620001665790829162000174575b5050732536fe9ab3f511540f2f9e2ec2a805005c3dd800803b15620001705781809160248551809481936336b91f2b60e01b83523360048401525af1801562000166576200014b575b8251610b989081620001fa8239f35b620001578291620001cf565b6200016357806200013c565b80fd5b83513d84823e3d90fd5b5080fd5b6200017f90620001cf565b62000163578038620000f3565b6200019790620001cf565b62000170578138620000bc565b84513d85823e3d90fd5b620001b990620001cf565b386200008d565b84513d84823e3d90fd5b600080fd5b6001600160401b038111620001e357604052565b634e487b7160e01b600052604160045260246000fdfe6080604081815260048036101561001557600080fd5b600092833560e01c90816306fdde03146108c957508063095ea7b31461085757806313e7c9d81461081d57806318160ddd146107fe57806323b872dd1461071e578063313ce5671461070257806340c10f191461067f57806342082c1e146105d35780636266d3241461051157806370a08231146104da578063715018a614610470578063728e616f146104415780638da5cb5b1461041b57806395d89b41146103c257806397d75776146103935780639dc29fac146102ff578063a9059cbb146102ce578063dd62ed3e1461027e578063f2fde38b146101955763fad8b32a146100ff57600080fd5b34610191576020366003190112610191576001600160a01b03610120610999565b610128610b0a565b168084528160205260ff83852054161561014e5783526020528120805460ff1916905580f35b506020606492519162461bcd60e51b8352820152601f60248201527f546869732061646472657373206973206e6f7420616e206f70657261746f72006044820152fd5b8280fd5b5034610191576020366003190112610191576101af610999565b906101b8610b0a565b6001600160a01b038092169283156102155750506000548273ffffffffffffffffffffffffffffffffffffffff19821617600055167f8be0079c531659141344cd1fd0a4f28419497f9722a3daafe3b4186f6b6457e0600080a380f35b906020608492519162461bcd60e51b8352820152602660248201527f4f776e61626c653a206e6577206f776e657220697320746865207a65726f206160448201527f64647265737300000000000000000000000000000000000000000000000000006064820152fd5b5050346102ca57806003193601126102ca5760209161029b610999565b826102a46109b4565b926001600160a01b03809316815260038652209116600052825280600020549051908152f35b5080fd5b5050346102ca57806003193601126102ca576020906102f86102ee610999565b6024359033610a45565b5160018152f35b5034610191578160031936011261019157916020927fddf252ad1be2c89b69c2b068fc378daa952ba7f163c4a11628f55a4df523b3ef846001600160a01b03610346610999565b60243594338752835261035e60ff88882054166109ed565b1692838552600282528585206103758282546109ca565b9055610383816001546109ca565b6001558551908152a35160018152f35b5050346102ca57816003193601126102ca57602090517343000000000000000000000000000000000000028152f35b5050346102ca57816003193601126102ca578051610417916103e38261091e565b600682527f77656e455448000000000000000000000000000000000000000000000000000060208301525191829182610950565b0390f35b5050346102ca57816003193601126102ca576001600160a01b0360209254169051908152f35b5050346102ca57816003193601126102ca5760209051732536fe9ab3f511540f2f9e2ec2a805005c3dd8008152f35b83346104d757806003193601126104d757610489610b0a565b60006001600160a01b03815473ffffffffffffffffffffffffffffffffffffffff1981168355167f8be0079c531659141344cd1fd0a4f28419497f9722a3daafe3b4186f6b6457e08280a380f35b80fd5b5050346102ca5760203660031901126102ca57806020926001600160a01b03610501610999565b1681526002845220549051908152f35b5090346101915760203660031901126101915761052c610999565b91610535610b0a565b8373430000000000000000000000000000000000000293843b156102ca5760246001600160a01b039183865197889485937feb86469800000000000000000000000000000000000000000000000000000000855216878401525af180156105c95761059e578380f35b67ffffffffffffffff83116105b65750523880808380f35b836041602492634e487b7160e01b835252fd5b82513d86823e3d90fd5b503461019157602091602060031936011261067b5767ffffffffffffffff918035838111610677573660238201121561067757808201359384116106775760249060053660248760051b840101116106735761062d610b0a565b875b86811061063a578880f35b8381831b84010135906001600160a01b03821680920361066f576001918a52858952868a208260ff198254161790550161062f565b8980fd5b8780fd5b8580fd5b8380fd5b50346101915781600319360112610191576020927fddf252ad1be2c89b69c2b068fc378daa952ba7f163c4a11628f55a4df523b3ef846001600160a01b036106c5610999565b6024359533865283526106dd60ff88872054166109ed565b1693848452600282528584206106f4828254610a38565b905561038381600154610a38565b5050346102ca57816003193601126102ca576020905160128152f35b50903461019157606036600319011261019157610739610999565b6107416109b4565b604435916001600160a01b0381168087526020956003875285882033895287528486892054106107bc57509386856102f896839899526003895282822033835289526000198383205403610798575b505050610a45565b8152600388528181203382528852206107b28482546109ca565b9055843880610790565b6064908787519162461bcd60e51b8352820152601660248201527f496e73756666696369656e7420616c6c6f77616e6365000000000000000000006044820152fd5b5050346102ca57816003193601126102ca576020906001549051908152f35b5034610191576020366003190112610191578160209360ff926001600160a01b03610846610999565b168252855220541690519015158152f35b5050346102ca57806003193601126102ca5760209181610875610999565b91602435918291338152600387526001600160a01b038282209516948582528752205582519081527f8c5be1e5ebec7d5bd14f71427d1e84f3dd0314c0f7b2291e5b200ac8c7c3b925843392a35160018152f35b8490843461019157826003193601126101915761041792506108ea8261091e565b601982527f57656e2045544820436f6d706f756e64696e6720546f6b656e0000000000000060208301525191829182610950565b6040810190811067ffffffffffffffff82111761093a57604052565b634e487b7160e01b600052604160045260246000fd5b6020808252825181830181905290939260005b82811061098557505060409293506000838284010152601f8019910116010190565b818101860151848201604001528501610963565b600435906001600160a01b03821682036109af57565b600080fd5b602435906001600160a01b03821682036109af57565b919082039182116109d757565b634e487b7160e01b600052601160045260246000fd5b156109f457565b606460405162461bcd60e51b815260206004820152600f60248201527f4e6f742061206f70657261746f727300000000000000000000000000000000006044820152fd5b919082018092116109d757565b906001600160a01b0380921691600093838552600260205280604086205410610ac65760406020927fddf252ad1be2c89b69c2b068fc378daa952ba7f163c4a11628f55a4df523b3ef9486885260028552828820610aa48582546109ca565b905516958681526002845220610abb828254610a38565b9055604051908152a3565b606460405162461bcd60e51b815260206004820152601460248201527f496e73756666696369656e742062616c616e63650000000000000000000000006044820152fd5b6001600160a01b03600054163303610b1e57565b606460405162461bcd60e51b815260206004820152602060248201527f4f776e61626c653a2063616c6c6572206973206e6f7420746865206f776e65726044820152fdfea264697066735822122028a9fb37a993f61aed9793be16bb83916fdfaf2af45f53e911b139f1daab1efc64736f6c63430008180033",
  "linkReferences": {},
  "deployedLinkReferences": {}
}