{
  "_format": "hh-sol-artifact-1",
  "contractName": "WenGasStationV1",
  "sourceName": "contracts/WenCore/WenGasStation/WenGasStationV1.sol",
  "abi": [
    {
      "anonymous": false,
      "inputs": [
        {
          "indexed": false,
          "internalType": "address",
          "name": "previousAdmin",
          "type": "address"
        },
        {
          "indexed": false,
          "internalType": "address",
          "name": "newAdmin",
          "type": "address"
        }
      ],
      "name": "AdminChanged",
      "type": "event"
    },
    {
      "anonymous": false,
      "inputs": [
        {
          "indexed": true,
          "internalType": "address",
          "name": "beacon",
          "type": "address"
        }
      ],
      "name": "BeaconUpgraded",
      "type": "event"
    },
    {
      "anonymous": false,
      "inputs": [
        {
          "indexed": false,
          "internalType": "address",
          "name": "contractAddress",
          "type": "address"
        },
        {
          "indexed": false,
          "internalType": "uint256",
          "name": "amount",
          "type": "uint256"
        }
      ],
      "name": "FeesCollected",
      "type": "event"
    },
    {
      "anonymous": false,
      "inputs": [
        {
          "indexed": false,
          "internalType": "address",
          "name": "contractAddress",
          "type": "address"
        },
        {
          "indexed": false,
          "internalType": "uint256",
          "name": "amount",
          "type": "uint256"
        }
      ],
      "name": "FeesDistributed",
      "type": "event"
    },
    {
      "anonymous": false,
      "inputs": [
        {
          "indexed": false,
          "internalType": "uint256",
          "name": "amount",
          "type": "uint256"
        }
      ],
      "name": "FeesReceived",
      "type": "event"
    },
    {
      "anonymous": false,
      "inputs": [
        {
          "indexed": false,
          "internalType": "uint8",
          "name": "version",
          "type": "uint8"
        }
      ],
      "name": "Initialized",
      "type": "event"
    },
    {
      "anonymous": false,
      "inputs": [
        {
          "indexed": true,
          "internalType": "address",
          "name": "previousOwner",
          "type": "address"
        },
        {
          "indexed": true,
          "internalType": "address",
          "name": "newOwner",
          "type": "address"
        }
      ],
      "name": "OwnershipTransferred",
      "type": "event"
    },
    {
      "anonymous": false,
      "inputs": [
        {
          "indexed": false,
          "internalType": "address",
          "name": "account",
          "type": "address"
        }
      ],
      "name": "Paused",
      "type": "event"
    },
    {
      "anonymous": false,
      "inputs": [
        {
          "indexed": false,
          "internalType": "address",
          "name": "account",
          "type": "address"
        }
      ],
      "name": "Unpaused",
      "type": "event"
    },
    {
      "anonymous": false,
      "inputs": [
        {
          "indexed": true,
          "internalType": "address",
          "name": "implementation",
          "type": "address"
        }
      ],
      "name": "Upgraded",
      "type": "event"
    },
    {
      "anonymous": false,
      "inputs": [
        {
          "indexed": false,
          "internalType": "address",
          "name": "contractAddress",
          "type": "address"
        },
        {
          "indexed": false,
          "internalType": "address",
          "name": "receipient",
          "type": "address"
        },
        {
          "indexed": false,
          "internalType": "uint256",
          "name": "amount",
          "type": "uint256"
        }
      ],
      "name": "YieldClaimed",
      "type": "event"
    },
    {
      "stateMutability": "payable",
      "type": "fallback"
    },
    {
      "inputs": [
        {
          "internalType": "address",
          "name": "_giver",
          "type": "address"
        }
      ],
      "name": "addFeeGiver",
      "outputs": [],
      "stateMutability": "nonpayable",
      "type": "function"
    },
    {
      "inputs": [
        {
          "internalType": "address",
          "name": "_receiver",
          "type": "address"
        },
        {
          "internalType": "uint256",
          "name": "_percent",
          "type": "uint256"
        }
      ],
      "name": "addFeeReceiver",
      "outputs": [],
      "stateMutability": "nonpayable",
      "type": "function"
    },
    {
      "inputs": [],
      "name": "blast",
      "outputs": [
        {
          "internalType": "contract IBlast",
          "name": "",
          "type": "address"
        }
      ],
      "stateMutability": "view",
      "type": "function"
    },
    {
      "inputs": [
        {
          "internalType": "address",
          "name": "contractAddr",
          "type": "address"
        },
        {
          "internalType": "uint256",
          "name": "newPercentage",
          "type": "uint256"
        }
      ],
      "name": "changePercentage",
      "outputs": [],
      "stateMutability": "nonpayable",
      "type": "function"
    },
    {
      "inputs": [],
      "name": "claimAll",
      "outputs": [],
      "stateMutability": "nonpayable",
      "type": "function"
    },
    {
      "inputs": [
        {
          "internalType": "address",
          "name": "addr",
          "type": "address"
        }
      ],
      "name": "claimAllByContract",
      "outputs": [],
      "stateMutability": "nonpayable",
      "type": "function"
    },
    {
      "inputs": [
        {
          "internalType": "address",
          "name": "contractAddress",
          "type": "address"
        },
        {
          "internalType": "address",
          "name": "recipient",
          "type": "address"
        }
      ],
      "name": "claimAllYield",
      "outputs": [],
      "stateMutability": "nonpayable",
      "type": "function"
    },
    {
      "inputs": [
        {
          "internalType": "address",
          "name": "recipient",
          "type": "address"
        }
      ],
      "name": "claimAllYield",
      "outputs": [],
      "stateMutability": "nonpayable",
      "type": "function"
    },
    {
      "inputs": [
        {
          "internalType": "uint256",
          "name": "minClaimRateBips",
          "type": "uint256"
        }
      ],
      "name": "claimGasAtMinClaimRate",
      "outputs": [],
      "stateMutability": "nonpayable",
      "type": "function"
    },
    {
      "inputs": [
        {
          "internalType": "address",
          "name": "addr",
          "type": "address"
        },
        {
          "internalType": "uint256",
          "name": "minClaimRateBips",
          "type": "uint256"
        }
      ],
      "name": "claimGasAtMinClaimRateByContract",
      "outputs": [],
      "stateMutability": "nonpayable",
      "type": "function"
    },
    {
      "inputs": [],
      "name": "claimMax",
      "outputs": [],
      "stateMutability": "nonpayable",
      "type": "function"
    },
    {
      "inputs": [
        {
          "internalType": "address",
          "name": "addr",
          "type": "address"
        }
      ],
      "name": "claimMaxByContract",
      "outputs": [],
      "stateMutability": "nonpayable",
      "type": "function"
    },
    {
      "inputs": [
        {
          "internalType": "address",
          "name": "recipient",
          "type": "address"
        },
        {
          "internalType": "uint256",
          "name": "amount",
          "type": "uint256"
        }
      ],
      "name": "claimYield",
      "outputs": [],
      "stateMutability": "nonpayable",
      "type": "function"
    },
    {
      "inputs": [
        {
          "internalType": "address",
          "name": "contractAddress",
          "type": "address"
        },
        {
          "internalType": "address",
          "name": "recipient",
          "type": "address"
        },
        {
          "internalType": "uint256",
          "name": "amount",
          "type": "uint256"
        }
      ],
      "name": "claimYield",
      "outputs": [],
      "stateMutability": "nonpayable",
      "type": "function"
    },
    {
      "inputs": [],
      "name": "distributeFees",
      "outputs": [],
      "stateMutability": "nonpayable",
      "type": "function"
    },
    {
      "inputs": [
        {
          "internalType": "uint256",
          "name": "",
          "type": "uint256"
        }
      ],
      "name": "feeGivers",
      "outputs": [
        {
          "internalType": "address",
          "name": "giver",
          "type": "address"
        }
      ],
      "stateMutability": "view",
      "type": "function"
    },
    {
      "inputs": [
        {
          "internalType": "uint256",
          "name": "",
          "type": "uint256"
        }
      ],
      "name": "feeReceivers",
      "outputs": [
        {
          "internalType": "address",
          "name": "receiver",
          "type": "address"
        },
        {
          "internalType": "uint256",
          "name": "percent",
          "type": "uint256"
        }
      ],
      "stateMutability": "view",
      "type": "function"
    },
    {
      "inputs": [],
      "name": "initialize",
      "outputs": [],
      "stateMutability": "nonpayable",
      "type": "function"
    },
    {
      "inputs": [
        {
          "internalType": "address",
          "name": "",
          "type": "address"
        }
      ],
      "name": "operators",
      "outputs": [
        {
          "internalType": "bool",
          "name": "",
          "type": "bool"
        }
      ],
      "stateMutability": "view",
      "type": "function"
    },
    {
      "inputs": [],
      "name": "owner",
      "outputs": [
        {
          "internalType": "address",
          "name": "",
          "type": "address"
        }
      ],
      "stateMutability": "view",
      "type": "function"
    },
    {
      "inputs": [],
      "name": "pause",
      "outputs": [],
      "stateMutability": "nonpayable",
      "type": "function"
    },
    {
      "inputs": [],
      "name": "paused",
      "outputs": [
        {
          "internalType": "bool",
          "name": "",
          "type": "bool"
        }
      ],
      "stateMutability": "view",
      "type": "function"
    },
    {
      "inputs": [],
      "name": "proxiableUUID",
      "outputs": [
        {
          "internalType": "bytes32",
          "name": "",
          "type": "bytes32"
        }
      ],
      "stateMutability": "view",
      "type": "function"
    },
    {
      "inputs": [
        {
          "internalType": "address",
          "name": "_giver",
          "type": "address"
        }
      ],
      "name": "removeFeeGiver",
      "outputs": [],
      "stateMutability": "nonpayable",
      "type": "function"
    },
    {
      "inputs": [
        {
          "internalType": "address",
          "name": "_receiver",
          "type": "address"
        }
      ],
      "name": "removeFeeReceiver",
      "outputs": [],
      "stateMutability": "nonpayable",
      "type": "function"
    },
    {
      "inputs": [],
      "name": "renounceOwnership",
      "outputs": [],
      "stateMutability": "nonpayable",
      "type": "function"
    },
    {
      "inputs": [
        {
          "internalType": "address",
          "name": "_operator",
          "type": "address"
        }
      ],
      "name": "revokeOperator",
      "outputs": [],
      "stateMutability": "nonpayable",
      "type": "function"
    },
    {
      "inputs": [
        {
          "internalType": "address",
          "name": "_blast",
          "type": "address"
        }
      ],
      "name": "setBlast",
      "outputs": [],
      "stateMutability": "nonpayable",
      "type": "function"
    },
    {
      "inputs": [
        {
          "internalType": "address",
          "name": "_governor",
          "type": "address"
        }
      ],
      "name": "setBlastGovernor",
      "outputs": [],
      "stateMutability": "nonpayable",
      "type": "function"
    },
    {
      "inputs": [
        {
          "internalType": "address",
          "name": "_blast",
          "type": "address"
        }
      ],
      "name": "setInitialInfo",
      "outputs": [],
      "stateMutability": "nonpayable",
      "type": "function"
    },
    {
      "inputs": [
        {
          "internalType": "address[]",
          "name": "_operators",
          "type": "address[]"
        }
      ],
      "name": "setOperator",
      "outputs": [],
      "stateMutability": "nonpayable",
      "type": "function"
    },
    {
      "inputs": [
        {
          "internalType": "address",
          "name": "newOwner",
          "type": "address"
        }
      ],
      "name": "transferOwnership",
      "outputs": [],
      "stateMutability": "nonpayable",
      "type": "function"
    },
    {
      "inputs": [],
      "name": "unpause",
      "outputs": [],
      "stateMutability": "nonpayable",
      "type": "function"
    },
    {
      "inputs": [
        {
          "internalType": "address",
          "name": "newImplementation",
          "type": "address"
        }
      ],
      "name": "upgradeTo",
      "outputs": [],
      "stateMutability": "nonpayable",
      "type": "function"
    },
    {
      "inputs": [
        {
          "internalType": "address",
          "name": "newImplementation",
          "type": "address"
        },
        {
          "internalType": "bytes",
          "name": "data",
          "type": "bytes"
        }
      ],
      "name": "upgradeToAndCall",
      "outputs": [],
      "stateMutability": "payable",
      "type": "function"
    },
    {
      "stateMutability": "payable",
      "type": "receive"
    }
  ],
  "bytecode": "0x60a08060405234610031573060805261294190816100378239608051818181611523015281816116560152611c6b0152f35b600080fdfe6080604081815260048036101561001e575b505050361561001c57005b005b600092833560e01c90816313e7c9d81461220757508063175e1a7d146121de5780631869ebda146120d757838163232bc80414611fc5575080632c7019bd14611eeb5780633659cfe614611c4357806337c349dc14611af25780633e99fcfd146119d85780633f4ba83a1461197857806342082c1e146118d45780634f1ef286146115da57806352d1902d14611506578381635744ee8814611415575080635b381760146113c55780635c975abb146113a157806360ac43b7146112b0578381636266d3241461121057508063715018a6146111b45780638129fc1c1461103b57806383f19e7614610f805780638456cb5914610f1d578063860043b614610dea5780638da5cb5b14610dc2578063ad107a4014610cb8578063ae1feb9514610b9d578063b24c730214610aa0578063bb57ad2014610853578063c2d94aec14610727578063cf85c2fb146106e6578063d1058e59146105b8578063d616ca9f1461047c578063e647a4301461043c578063f2fde38b14610394578063f9719662146102495763fad8b32a036100115734610245576020366003190112610245576001600160a01b036101cf612242565b6101d7612559565b16808452610130918260205260ff848620541615610202575083526020528120805460ff1916905580f35b606490602085519162461bcd60e51b8352820152601f60248201527f546869732061646472657373206973206e6f7420616e206f70657261746f72006044820152fd5b8280fd5b503461024557606036600319011261024557610263612242565b8360206102d4610271612258565b94338452610130835261028960ff88862054166123b1565b6001600160a01b0361012d5416908751948580948193637cb8cb3160e11b83528a8a6044359285016040919493929460608201956001600160a01b0380921683521660208201520152565b03925af190811561038a578591610333575b5092516001600160a01b0391821681529116602082015260408101919091527ff3055bc8d92d9c8d2f12b45d112dd345cd2cfd17292b8d65c5642ac6f912dfd79080606081015b0390a180f35b90506020813d602011610382575b8161034e602093836122ec565b8101031261037d57517ff3055bc8d92d9c8d2f12b45d112dd345cd2cfd17292b8d65c5642ac6f912dfd76102e6565b600080fd5b3d9150610341565b84513d87823e3d90fd5b5034610245576020366003190112610245576103ae612242565b916103b7612559565b6001600160a01b038316156103d357836103d084612645565b80f35b906020608492519162461bcd60e51b8352820152602660248201527f4f776e61626c653a206e6577206f776e657220697320746865207a65726f206160448201527f64647265737300000000000000000000000000000000000000000000000000006064820152fd5b503461024557602036600319011261024557359161012f5483101561047957506001600160a01b0361046f60209361237a565b5054169051908152f35b80fd5b50823461047957602091826003193601126105b45780359033835261013084526104ab60ff86852054166123b1565b825b61012f548110156105b0576104c18161237a565b509061051b87516104d18161226e565b92546001600160a01b0390811680855261012d548a51630951888f60e01b815280880192835230602084015260408301899052929592938a92859288169183918c91839160600190565b03925af19182156105a6578792610576575b5051885193166001600160a01b0316835260208301526001917f9dc46f23cfb5ddcad0ae7ea2be38d47fec07bb9382ec7e564efc69e036dd66ce9080604081010390a1016104ad565b91508782813d831161059f575b61058d81836122ec565b8101031261037d57905190600161052d565b503d610583565b89513d89823e3d90fd5b8380f35b5080fd5b50823461047957806003193601126104795733815260206101306020526105e460ff85842054166123b1565b815b61012f548110156106e2576105fa8161237a565b509061064d865161060a8161226e565b92546001600160a01b0390811680855261012d548951634aa7d2f760e11b8152808a01928352306020840152929592938792859288169183918b91839160400190565b03925af19182156106d85786926106a8575b5051875193166001600160a01b0316835260208301526001917f9dc46f23cfb5ddcad0ae7ea2be38d47fec07bb9382ec7e564efc69e036dd66ce9080604081010390a1016105e6565b91508482813d83116106d1575b6106bf81836122ec565b8101031261037d57905190600161065f565b503d6106b5565b88513d88823e3d90fd5b8280f35b833461047957602036600319011261047957610700612242565b610708612559565b6001600160a01b0361012d91166001600160a01b031982541617905580f35b509034610245576020908160031936011261084f57816107ba93610749612242565b9033875261013080845261076260ff868a2054166123b1565b338852835261077660ff85892054166123b1565b6001600160a01b0361012d54169087855180988195829463430021db60e11b8452309084019060209093929360408301946001600160a01b03809216845216910152565b03925af19081156108465784916107f7575b7f91b044947b8ab661360de0aedacf8d16ad45adfb1f3bafb2ac8c4633e297b971935051908152a180f35b90508183813d831161083f575b61080e81836122ec565b8101031261037d577f91b044947b8ab661360de0aedacf8d16ad45adfb1f3bafb2ac8c4633e297b9719251906107cc565b503d610804565b513d85823e3d90fd5b8380fd5b509034610245578260031936011261024557338352602061013060205261087f60ff83862054166123b1565b4715610a5d5747908491859261012e9384545b808210610a27575050801591826109be57939584159490885b88548110156109ba576108bd8161232a565b5088516108c9816122b4565b60016001600160a01b03928381541683520154808983015280860290868204148a17156109a5576402540be4009081810290808204831490151715610992578861097d57927f63be20cc905d5ba0cf65db405c4999f99f2575e521875f13a8009d6eed7a09d9928e92896001979604049280808086868651165af15061094d612529565b5051166109748c5192839283602090939291936001600160a01b0360408201951681520152565b0390a1016108ab565b601286634e487b7160e01b6000525260246000fd5b60248e601188634e487b7160e01b835252fd5b601185634e487b7160e01b6000525260246000fd5b8980f35b608487602088519162461bcd60e51b8352820152602360248201527f546f74616c2070657263656e742073686f756c64206265206d6f72652074686160448201527f6e203000000000000000000000000000000000000000000000000000000000006064820152fd5b90916001610a348461232a565b5001548101809111610a4a579160010190610892565b60248960118a634e487b7160e01b835252fd5b606483602084519162461bcd60e51b8352820152601560248201527f4e6f2045746820746f20646973747269627574652e00000000000000000000006044820152fd5b509190346105b457806003193601126105b457610abb612242565b610ac3612559565b6001600160a01b03809116918215610b5b575191610ae0836122b4565b82526020820190602435825261012e80549068010000000000000000821015610b4857600182019055610b129061232a565b939093610b3657906001929151166001600160a01b03198454161783555191015580f35b6024858088634e487b7160e01b825252fd5b602486604189634e487b7160e01b835252fd5b5162461bcd60e51b8152602081860152601860248201527f496e76616c6964207265636569766572206164647265737300000000000000006044820152606490fd5b5034610245576020908160031936011261084f578382610c10610bbe612242565b933384526101308352610bd660ff88862054166123b1565b61012d548751634aa7d2f760e11b81526001600160a01b038781169382019384523060208501529095869492909116928492839160400190565b03925af192831561038a578593610c64575b505091516001600160a01b03909216825260208201527f9dc46f23cfb5ddcad0ae7ea2be38d47fec07bb9382ec7e564efc69e036dd66ce90806040810161032d565b9080949350813d8311610cb1575b610c7c81836122ec565b8101031261037d5761032d7f9dc46f23cfb5ddcad0ae7ea2be38d47fec07bb9382ec7e564efc69e036dd66ce93519293610c22565b503d610c72565b8382346105b45760203660031901126105b457610ce3610cd6612242565b610cde612559565b6126fe565b600019610cf2828214156124de565b61012e918254828101908111610daf57610d0e610d159161232a565b509161232a565b919091610d9d57808203610d73575b505081548015610d60570191610d398361232a565b919091610d4e57506001818580935501555580f35b8480602492634e487b7160e01b825252fd5b602485603186634e487b7160e01b835252fd5b6001816001600160a01b03829354166001600160a01b031985541617845501549101558480610d24565b6024868087634e487b7160e01b825252fd5b602486601187634e487b7160e01b835252fd5b5050346105b457816003193601126105b4576020906001600160a01b03609754169051908152f35b5034610245578160031936011261024557610e03612242565b610e0b612258565b91338552610e85610130846020938285938452610e2d60ff8a8c2054166123b1565b338a528352610e4160ff898b2054166123b1565b85896001600160a01b0361012d5416928a519687958694859363430021db60e11b855284019060209093929360408301946001600160a01b03809216845216910152565b03925af1918215610f13578692610ee3575b505092516001600160a01b0391821681529116602082015260408101919091527ff3055bc8d92d9c8d2f12b45d112dd345cd2cfd17292b8d65c5642ac6f912dfd790806060810161032d565b90809250813d8311610f0c575b610efa81836122ec565b8101031261037d57518361032d610e97565b503d610ef0565b85513d88823e3d90fd5b5050346105b457816003193601126105b45760207f62e78cea01bee320cd4e420270b5ea74000d11b0c9f74754ebdbfc544b05a25891610f5b612559565b610f6361273b565b610f6b61273b565b600160ff1960fb54161760fb5551338152a180f35b509034610245578060031936011261024557610f9a612242565b91610faa60243593610cde612559565b91610fb96000198414156124de565b8315610fd2575050610fcc60019161232a565b50015580f35b906020608492519162461bcd60e51b8352820152602660248201527f4e65772050657263656e746167652073686f756c64206265206269676765722060448201527f7468616e203000000000000000000000000000000000000000000000000000006064820152fd5b503461024557826003193601126102455782549060ff8260081c1615908180926111a7575b8015611190575b15611127575060ff1982811660011785559181611116575b5061109960ff855460081c166110948161268d565b61268d565b6110a233612645565b8354916110cf60ff8460081c166110b88161268d565b6110c18161268d565b600160c9556110948161268d565b60fb541660fb556110de578280f35b61ff001916825551600181527f7f26b83ff96e1f2b6a682f133852f6798a09c465da95921460cefb384740249890602090a138808280f35b61ffff19166101011784553861107f565b608490602085519162461bcd60e51b8352820152602e60248201527f496e697469616c697a61626c653a20636f6e747261637420697320616c72656160448201527f647920696e697469616c697a65640000000000000000000000000000000000006064820152fd5b50303b1580156110675750600160ff841614611067565b50600160ff841610611060565b83346104795780600319360112610479576111cd612559565b60006001600160a01b036097546001600160a01b03198116609755167f8be0079c531659141344cd1fd0a4f28419497f9722a3daafe3b4186f6b6457e08280a380f35b929050346112ac5760203660031901126112ac5761122c612242565b611234612559565b6001600160a01b038061012d5416803b156112a857859283602492865197889586947feb86469800000000000000000000000000000000000000000000000000000000865216908401525af190811561129f575061128f5750f35b611298906122a0565b6104795780f35b513d84823e3d90fd5b8580fd5b5050fd5b509034610245576020366003190112610245576112db6112ce612242565b6112d6612559565b612602565b906000199081831461135f575061012f918254828101908111610daf5761130461130b9161237a565b509161237a565b919091610d9d5780820361133e575b505081548015610d6057019161132f8361237a565b919091610d4e57508390555580f35b6001600160a01b039054166001600160a01b0319825416179055388061131a565b5162461bcd60e51b8152602081850152600f60248201527f4769766572206e6f7420666f756e6400000000000000000000000000000000006044820152606490fd5b5050346105b457816003193601126105b45760209060ff60fb541690519015158152f35b508290346105b45760203660031901126105b457359061012e5482101561047957506113f09061232a565b50805460019091015491516001600160a01b0390911681526020810191909152604090f35b929050346112ac5760203660031901126112ac57611431612242565b611439612559565b6001600160a01b0380911661012d90806001600160a01b0319835416178255803b156112a8578590858551809981937ff098767a0000000000000000000000000000000000000000000000000000000083525af180156114fc576114e8575b849550541691823b156114e357839283918351809581937f4e606c470000000000000000000000000000000000000000000000000000000083525af190811561129f575061128f5750f35b505050fd5b9390946114f4906122a0565b928490611498565b83513d87823e3d90fd5b508234610479578060031936011261047957506001600160a01b037f000000000000000000000000000000000000000000000000000000000000000016300361157257602082517f360894a13ba1a3210667c828492db98dca3e2076cc3735a920a3ca505d382bbc8152f35b6020608492519162461bcd60e51b8352820152603860248201527f555550535570677261646561626c653a206d757374206e6f742062652063616c60448201527f6c6564207468726f7567682064656c656761746563616c6c00000000000000006064820152fd5b509080600319360112610245576115ef612242565b906024359067ffffffffffffffff82116118d057366023830112156118d0578184013561161b8161230e565b90611628835192836122ec565b80825286602094858401923660248284010111610245578060248893018537840101526001600160a01b03807f00000000000000000000000000000000000000000000000000000000000000001690611683823014156123fc565b6116b27f360894a13ba1a3210667c828492db98dca3e2076cc3735a920a3ca505d382bbc92828454161461246d565b6116ba612559565b7f4910fdfa16fed3260ed0e7147f7cc6da11a60208b5b9406d12a635614ffd91435460ff16156116f4575050505050506103d0915061278b565b8693949596169085516352d1902d60e01b815287818a81865afa8a918161189d575b50611783576084898989519162461bcd60e51b8352820152602e60248201527f45524331393637557067726164653a206e657720696d706c656d656e7461746960448201527f6f6e206973206e6f7420555550530000000000000000000000000000000000006064820152fd5b979192939594970361184957509086929161179d8561278b565b7fbc7cd75a20ee27fd9adebab32041f755214dbc6bffa90cc0225b39da2e5c2d3b8480a2855115801590611841575b6117da575b50505050505080f35b61183595660819985a5b195960ca1b837f416464726573733a206c6f772d6c6576656c2064656c65676174652063616c6c869551986118188a6122d0565b60278a528901528701525190845af461182f612529565b91612838565b503880808381806117d1565b5060016117cc565b6084908685519162461bcd60e51b8352820152602960248201527f45524331393637557067726164653a20756e737570706f727465642070726f786044820152681a58589b195555525160ba1b6064820152fd5b9091508881813d83116118c9575b6118b581836122ec565b810103126118c557519038611716565b8a80fd5b503d6118ab565b8480fd5b5090346102455760208060031936011261084f57823567ffffffffffffffff938482116112a857366023830112156112a8578101359384116118d05760249060053660248760051b840101116119745761192c612559565b865b868110611939578780f35b8381831b84010135906001600160a01b03821680920361197057600191895261013086528689208260ff198254161790550161192e565b8880fd5b8680fd5b5050346105b457816003193601126105b45760207f5db9ee0a495bf2e6ff9c91a7834c1ba4fdd244a5e8aa4e537bd38aeae4b073aa916119b6612559565b6119be6125b1565b6119c66125b1565b60ff1960fb541660fb5551338152a180f35b5034610245576020908160031936011261084f578382611a4b6119f9612242565b933384526101308352611a1160ff88862054166123b1565b61012d54875163662aa11d60e01b81526001600160a01b038781169382019384523060208501529095869492909116928492839160400190565b03925af192831561038a578593611a9e57505091516001600160a01b03909216825260208201527f9dc46f23cfb5ddcad0ae7ea2be38d47fec07bb9382ec7e564efc69e036dd66ce90806040810161032d565b9080949350813d8311611aeb575b611ab681836122ec565b8101031261084f5761032d7f9dc46f23cfb5ddcad0ae7ea2be38d47fec07bb9382ec7e564efc69e036dd66ce93519293610c22565b503d611aac565b509034610245578260031936011261024557338352602092610130602052611b1f60ff83832054166123b1565b805b61012f54811015611c3f57611b87611b388261237a565b508451611b448161226e565b90546001600160a01b0390811680835261012d54875163662aa11d60e01b8152808a01928352306020840152949293928a92869286169183918a91839160400190565b03925af1928315611c35578593611be6575b5051855191166001600160a01b031681526020810191909152600191907f9dc46f23cfb5ddcad0ae7ea2be38d47fec07bb9382ec7e564efc69e036dd66ce9080604081010390a101611b21565b9092508781813d8311611c2e575b611bfe81836122ec565b810103126118d05751917f9dc46f23cfb5ddcad0ae7ea2be38d47fec07bb9382ec7e564efc69e036dd66ce611b99565b503d611bf4565b86513d87823e3d90fd5b5080f35b5090346102455760208060031936011261084f57611c5f612242565b916001600160a01b03807f000000000000000000000000000000000000000000000000000000000000000016611c97813014156123fc565b611cc67f360894a13ba1a3210667c828492db98dca3e2076cc3735a920a3ca505d382bbc91838354161461246d565b611cce612559565b825191611cda8361226e565b8783527f4910fdfa16fed3260ed0e7147f7cc6da11a60208b5b9406d12a635614ffd91435460ff1615611d165750505050506103d0915061278b565b8592939495169084516352d1902d60e01b815286818981865afa899181611eb8575b50611da5576084888888519162461bcd60e51b8352820152602e60248201527f45524331393637557067726164653a206e657720696d706c656d656e7461746960448201527f6f6e206973206e6f7420555550530000000000000000000000000000000000006064820152fd5b9691929495939603611e645750908591611dbe8461278b565b7fbc7cd75a20ee27fd9adebab32041f755214dbc6bffa90cc0225b39da2e5c2d3b8380a2845115801590611e5d575b611dfa575b505050505080f35b611e52948291660819985a5b195960ca1b865196611e17886122d0565b602788527f416464726573733a206c6f772d6c6576656c2064656c65676174652063616c6c8389015287015281519101845af461182f612529565b503880808381611df2565b5081611ded565b6084908386519162461bcd60e51b8352820152602960248201527f45524331393637557067726164653a20756e737570706f727465642070726f786044820152681a58589b195555525160ba1b6064820152fd5b9091508781813d8311611ee4575b611ed081836122ec565b81010312611ee057519038611d38565b8980fd5b503d611ec6565b50903461024557602036600319011261024557611f06612242565b90611f0f612559565b6001600160a01b03809216908115611f83575190611f2c8261226e565b815261012f80549068010000000000000000821015611f7057600182019055611f549061237a565b939093610d4e575051166001600160a01b031982541617905580f35b602486604187634e487b7160e01b835252fd5b5162461bcd60e51b8152602081850152601560248201527f496e76616c6964206769766572206164647265737300000000000000000000006044820152606490fd5b919050346105b457826003193601126105b457602061203f611fe5612242565b923385526101308352611ffd60ff87872054166123b1565b61012d548651630951888f60e01b81526001600160a01b0386811693820193845230602085015260243560408501529096879492909116928492839160600190565b03925af19182156120ca578492612092575b5091516001600160a01b03909216825260208201527f9dc46f23cfb5ddcad0ae7ea2be38d47fec07bb9382ec7e564efc69e036dd66ce90806040810161032d565b9291506020833d6020116120c2575b816120ae602093836122ec565b8101031261084f579151909161032d612051565b3d91506120a1565b50505051903d90823e3d90fd5b5034610245578160031936011261024557612153916120f4612242565b3385526020928391610130835261211060ff85892054166123b1565b61012d548451637cb8cb3160e11b8152309381019384526001600160a01b0392831660208501526024356040850152968793919092169183918991839160600190565b03925af190811561084657849161218f577f91b044947b8ab661360de0aedacf8d16ad45adfb1f3bafb2ac8c4633e297b971935051908152a180f35b90508183813d83116121d7575b6121a681836122ec565b8101031261084f577f91b044947b8ab661360de0aedacf8d16ad45adfb1f3bafb2ac8c4633e297b9719251906107cc565b503d61219c565b5050346105b457816003193601126105b4576020906001600160a01b0361012d54169051908152f35b849084346102455760203660031901126102455760ff906020936001600160a01b03612231612242565b168152610130855220541615158152f35b600435906001600160a01b038216820361037d57565b602435906001600160a01b038216820361037d57565b6020810190811067ffffffffffffffff82111761228a57604052565b634e487b7160e01b600052604160045260246000fd5b67ffffffffffffffff811161228a57604052565b6040810190811067ffffffffffffffff82111761228a57604052565b6060810190811067ffffffffffffffff82111761228a57604052565b90601f8019910116810190811067ffffffffffffffff82111761228a57604052565b67ffffffffffffffff811161228a57601f01601f191660200190565b61012e80548210156123645760005260011b7fbdaadd9f750d0166045bf387a364eadd28ba243e04512a47282aa5147a68e37f0190600090565b634e487b7160e01b600052603260045260246000fd5b61012f8054821015612364576000527f232da9e50dad2971456a78fb5cd6ff6b75019984d6e918139ce990999420f9790190600090565b156123b857565b606460405162461bcd60e51b815260206004820152600f60248201527f4e6f742061206f70657261746f727300000000000000000000000000000000006044820152fd5b1561240357565b608460405162461bcd60e51b815260206004820152602c60248201527f46756e6374696f6e206d7573742062652063616c6c6564207468726f7567682060448201527f64656c656761746563616c6c00000000000000000000000000000000000000006064820152fd5b1561247457565b608460405162461bcd60e51b815260206004820152602c60248201527f46756e6374696f6e206d7573742062652063616c6c6564207468726f7567682060448201527f6163746976652070726f787900000000000000000000000000000000000000006064820152fd5b156124e557565b606460405162461bcd60e51b815260206004820152601260248201527f5265636569766572206e6f7420666f756e6400000000000000000000000000006044820152fd5b3d15612554573d9061253a8261230e565b9161254860405193846122ec565b82523d6000602084013e565b606090565b6001600160a01b0360975416330361256d57565b606460405162461bcd60e51b815260206004820152602060248201527f4f776e61626c653a2063616c6c6572206973206e6f7420746865206f776e65726044820152fd5b60ff60fb5416156125be57565b606460405162461bcd60e51b815260206004820152601460248201527f5061757361626c653a206e6f74207061757365640000000000000000000000006044820152fd5b61012f549060005b82811061261a5750505060001990565b6126238161237a565b50546001600160a01b0383811691161461263f5760010161260a565b91505090565b609754906001600160a01b0380911691826001600160a01b0319821617609755167f8be0079c531659141344cd1fd0a4f28419497f9722a3daafe3b4186f6b6457e0600080a3565b1561269457565b608460405162461bcd60e51b815260206004820152602b60248201527f496e697469616c697a61626c653a20636f6e7472616374206973206e6f74206960448201527f6e697469616c697a696e670000000000000000000000000000000000000000006064820152fd5b61012e549060005b8281106127165750505060001990565b61271f8161232a565b50546001600160a01b0383811691161461263f57600101612706565b60ff60fb541661274757565b606460405162461bcd60e51b815260206004820152601060248201527f5061757361626c653a20706175736564000000000000000000000000000000006044820152fd5b803b156127ce576001600160a01b037f360894a13ba1a3210667c828492db98dca3e2076cc3735a920a3ca505d382bbc91166001600160a01b0319825416179055565b608460405162461bcd60e51b815260206004820152602d60248201527f455243313936373a206e657720696d706c656d656e746174696f6e206973206e60448201527f6f74206120636f6e7472616374000000000000000000000000000000000000006064820152fd5b91929015612899575081511561284c575090565b3b156128555790565b606460405162461bcd60e51b815260206004820152601d60248201527f416464726573733a2063616c6c20746f206e6f6e2d636f6e74726163740000006044820152fd5b8251909150156128ac5750805190602001fd5b6040519062461bcd60e51b82528160208060048301528251908160248401526000935b8285106128f2575050604492506000838284010152601f80199101168101030190fd5b84810182015186860160440152938101938593506128cf56fea264697066735822122099395edb3b6f5d564e9c77b630000ed8634e3403fd2cad017d1a449b06c5cb8664736f6c63430008180033",
  "linkReferences": {},
  "deployedLinkReferences": {}
}