{
  "_format": "hh-sol-artifact-1",
  "contractName": "WenOGPassStakingV1",
  "sourceName": "contracts/WenCore/WenOGPassStakingV1.sol",
  "abi": [
    {
      "inputs": [],
      "stateMutability": "nonpayable",
      "type": "constructor"
    },
    {
      "anonymous": false,
      "inputs": [
        {
          "indexed": false,
          "internalType": "address",
          "name": "previousAdmin",
          "type": "address"
        },
        {
          "indexed": false,
          "internalType": "address",
          "name": "newAdmin",
          "type": "address"
        }
      ],
      "name": "AdminChanged",
      "type": "event"
    },
    {
      "anonymous": false,
      "inputs": [
        {
          "indexed": true,
          "internalType": "address",
          "name": "beacon",
          "type": "address"
        }
      ],
      "name": "BeaconUpgraded",
      "type": "event"
    },
    {
      "anonymous": false,
      "inputs": [
        {
          "indexed": false,
          "internalType": "uint8",
          "name": "version",
          "type": "uint8"
        }
      ],
      "name": "Initialized",
      "type": "event"
    },
    {
      "anonymous": false,
      "inputs": [
        {
          "indexed": true,
          "internalType": "address",
          "name": "previousOwner",
          "type": "address"
        },
        {
          "indexed": true,
          "internalType": "address",
          "name": "newOwner",
          "type": "address"
        }
      ],
      "name": "OwnershipTransferred",
      "type": "event"
    },
    {
      "anonymous": false,
      "inputs": [
        {
          "indexed": false,
          "internalType": "address",
          "name": "account",
          "type": "address"
        }
      ],
      "name": "Paused",
      "type": "event"
    },
    {
      "anonymous": false,
      "inputs": [
        {
          "indexed": true,
          "internalType": "address",
          "name": "rewardsToken",
          "type": "address"
        },
        {
          "indexed": false,
          "internalType": "uint256",
          "name": "reward",
          "type": "uint256"
        }
      ],
      "name": "RewardAdded",
      "type": "event"
    },
    {
      "anonymous": false,
      "inputs": [
        {
          "indexed": true,
          "internalType": "address",
          "name": "user",
          "type": "address"
        },
        {
          "indexed": true,
          "internalType": "address",
          "name": "rewardsToken",
          "type": "address"
        },
        {
          "indexed": false,
          "internalType": "uint256",
          "name": "reward",
          "type": "uint256"
        }
      ],
      "name": "RewardPaid",
      "type": "event"
    },
    {
      "anonymous": false,
      "inputs": [
        {
          "indexed": false,
          "internalType": "uint256",
          "name": "newDuration",
          "type": "uint256"
        }
      ],
      "name": "RewardsDurationUpdated",
      "type": "event"
    },
    {
      "anonymous": false,
      "inputs": [
        {
          "indexed": true,
          "internalType": "address",
          "name": "user",
          "type": "address"
        },
        {
          "indexed": false,
          "internalType": "uint256",
          "name": "tokenId",
          "type": "uint256"
        }
      ],
      "name": "Staked",
      "type": "event"
    },
    {
      "anonymous": false,
      "inputs": [
        {
          "indexed": false,
          "internalType": "address",
          "name": "account",
          "type": "address"
        }
      ],
      "name": "Unpaused",
      "type": "event"
    },
    {
      "anonymous": false,
      "inputs": [
        {
          "indexed": false,
          "internalType": "address",
          "name": "rewardToken",
          "type": "address"
        },
        {
          "indexed": false,
          "internalType": "uint256",
          "name": "rewardPerTokenStored",
          "type": "uint256"
        },
        {
          "indexed": false,
          "internalType": "address",
          "name": "user",
          "type": "address"
        },
        {
          "indexed": false,
          "internalType": "uint256",
          "name": "earned",
          "type": "uint256"
        },
        {
          "indexed": false,
          "internalType": "uint256",
          "name": "userRewardPerTokenPaid",
          "type": "uint256"
        }
      ],
      "name": "UpdateReward",
      "type": "event"
    },
    {
      "anonymous": false,
      "inputs": [
        {
          "indexed": true,
          "internalType": "address",
          "name": "implementation",
          "type": "address"
        }
      ],
      "name": "Upgraded",
      "type": "event"
    },
    {
      "anonymous": false,
      "inputs": [
        {
          "indexed": true,
          "internalType": "address",
          "name": "user",
          "type": "address"
        },
        {
          "indexed": false,
          "internalType": "uint256",
          "name": "tokenId",
          "type": "uint256"
        }
      ],
      "name": "Withdrawn",
      "type": "event"
    },
    {
      "inputs": [],
      "name": "BLAST",
      "outputs": [
        {
          "internalType": "contract IBlast",
          "name": "",
          "type": "address"
        }
      ],
      "stateMutability": "view",
      "type": "function"
    },
    {
      "inputs": [],
      "name": "BLASTPOINTS",
      "outputs": [
        {
          "internalType": "contract IBlastPoints",
          "name": "",
          "type": "address"
        }
      ],
      "stateMutability": "view",
      "type": "function"
    },
    {
      "inputs": [],
      "name": "REWARDS_DURATION",
      "outputs": [
        {
          "internalType": "uint256",
          "name": "",
          "type": "uint256"
        }
      ],
      "stateMutability": "view",
      "type": "function"
    },
    {
      "inputs": [
        {
          "internalType": "uint256[]",
          "name": "tokenIds",
          "type": "uint256[]"
        }
      ],
      "name": "batchStake",
      "outputs": [],
      "stateMutability": "nonpayable",
      "type": "function"
    },
    {
      "inputs": [
        {
          "internalType": "uint256[]",
          "name": "tokenIds",
          "type": "uint256[]"
        }
      ],
      "name": "batchWithdraw",
      "outputs": [],
      "stateMutability": "nonpayable",
      "type": "function"
    },
    {
      "inputs": [],
      "name": "claimReward",
      "outputs": [],
      "stateMutability": "nonpayable",
      "type": "function"
    },
    {
      "inputs": [
        {
          "internalType": "address",
          "name": "account",
          "type": "address"
        }
      ],
      "name": "earned",
      "outputs": [
        {
          "internalType": "uint256",
          "name": "",
          "type": "uint256"
        }
      ],
      "stateMutability": "view",
      "type": "function"
    },
    {
      "inputs": [],
      "name": "getRewardForDuration",
      "outputs": [
        {
          "internalType": "uint256",
          "name": "",
          "type": "uint256"
        }
      ],
      "stateMutability": "view",
      "type": "function"
    },
    {
      "inputs": [],
      "name": "initialize",
      "outputs": [],
      "stateMutability": "nonpayable",
      "type": "function"
    },
    {
      "inputs": [],
      "name": "lastTimeRewardApplicable",
      "outputs": [
        {
          "internalType": "uint256",
          "name": "",
          "type": "uint256"
        }
      ],
      "stateMutability": "view",
      "type": "function"
    },
    {
      "inputs": [
        {
          "internalType": "address",
          "name": "operator",
          "type": "address"
        },
        {
          "internalType": "address",
          "name": "from",
          "type": "address"
        },
        {
          "internalType": "uint256",
          "name": "tokenId",
          "type": "uint256"
        },
        {
          "internalType": "bytes",
          "name": "data",
          "type": "bytes"
        }
      ],
      "name": "onERC721Received",
      "outputs": [
        {
          "internalType": "bytes4",
          "name": "",
          "type": "bytes4"
        }
      ],
      "stateMutability": "nonpayable",
      "type": "function"
    },
    {
      "inputs": [],
      "name": "owner",
      "outputs": [
        {
          "internalType": "address",
          "name": "",
          "type": "address"
        }
      ],
      "stateMutability": "view",
      "type": "function"
    },
    {
      "inputs": [],
      "name": "pause",
      "outputs": [],
      "stateMutability": "nonpayable",
      "type": "function"
    },
    {
      "inputs": [],
      "name": "paused",
      "outputs": [
        {
          "internalType": "bool",
          "name": "",
          "type": "bool"
        }
      ],
      "stateMutability": "view",
      "type": "function"
    },
    {
      "inputs": [],
      "name": "proxiableUUID",
      "outputs": [
        {
          "internalType": "bytes32",
          "name": "",
          "type": "bytes32"
        }
      ],
      "stateMutability": "view",
      "type": "function"
    },
    {
      "inputs": [],
      "name": "renounceOwnership",
      "outputs": [],
      "stateMutability": "nonpayable",
      "type": "function"
    },
    {
      "inputs": [],
      "name": "rewardData",
      "outputs": [
        {
          "internalType": "uint256",
          "name": "periodFinish",
          "type": "uint256"
        },
        {
          "internalType": "uint256",
          "name": "rewardRate",
          "type": "uint256"
        },
        {
          "internalType": "uint256",
          "name": "lastUpdateTime",
          "type": "uint256"
        },
        {
          "internalType": "uint256",
          "name": "rewardPerTokenStored",
          "type": "uint256"
        },
        {
          "internalType": "uint256",
          "name": "balance",
          "type": "uint256"
        }
      ],
      "stateMutability": "view",
      "type": "function"
    },
    {
      "inputs": [],
      "name": "rewardPerToken",
      "outputs": [
        {
          "internalType": "uint256",
          "name": "",
          "type": "uint256"
        }
      ],
      "stateMutability": "view",
      "type": "function"
    },
    {
      "inputs": [],
      "name": "rewardToken",
      "outputs": [
        {
          "internalType": "address",
          "name": "",
          "type": "address"
        }
      ],
      "stateMutability": "view",
      "type": "function"
    },
    {
      "inputs": [
        {
          "internalType": "address",
          "name": "",
          "type": "address"
        }
      ],
      "name": "rewards",
      "outputs": [
        {
          "internalType": "uint256",
          "name": "",
          "type": "uint256"
        }
      ],
      "stateMutability": "view",
      "type": "function"
    },
    {
      "inputs": [],
      "name": "rewardsDistribution",
      "outputs": [
        {
          "internalType": "address",
          "name": "",
          "type": "address"
        }
      ],
      "stateMutability": "view",
      "type": "function"
    },
    {
      "inputs": [
        {
          "internalType": "address",
          "name": "_stakingToken",
          "type": "address"
        },
        {
          "internalType": "address",
          "name": "_rewardToken",
          "type": "address"
        },
        {
          "internalType": "uint256",
          "name": "_rewardDuration",
          "type": "uint256"
        },
        {
          "internalType": "address",
          "name": "_rewardsDistribution",
          "type": "address"
        }
      ],
      "name": "setInitialInfo",
      "outputs": [],
      "stateMutability": "nonpayable",
      "type": "function"
    },
    {
      "inputs": [
        {
          "internalType": "address",
          "name": "_rewardsDistribution",
          "type": "address"
        }
      ],
      "name": "setRewardsDistribution",
      "outputs": [],
      "stateMutability": "nonpayable",
      "type": "function"
    },
    {
      "inputs": [
        {
          "internalType": "uint256",
          "name": "_rewardsDuration",
          "type": "uint256"
        }
      ],
      "name": "setRewardsDuration",
      "outputs": [],
      "stateMutability": "nonpayable",
      "type": "function"
    },
    {
      "inputs": [
        {
          "internalType": "uint256",
          "name": "tokenId",
          "type": "uint256"
        }
      ],
      "name": "stake",
      "outputs": [],
      "stateMutability": "nonpayable",
      "type": "function"
    },
    {
      "inputs": [
        {
          "internalType": "address",
          "name": "user",
          "type": "address"
        }
      ],
      "name": "stakedTokensByUser",
      "outputs": [
        {
          "internalType": "uint256[]",
          "name": "",
          "type": "uint256[]"
        }
      ],
      "stateMutability": "view",
      "type": "function"
    },
    {
      "inputs": [],
      "name": "stakingToken",
      "outputs": [
        {
          "internalType": "contract IERC721Upgradeable",
          "name": "",
          "type": "address"
        }
      ],
      "stateMutability": "view",
      "type": "function"
    },
    {
      "inputs": [
        {
          "internalType": "uint256",
          "name": "tokenId",
          "type": "uint256"
        }
      ],
      "name": "tokenOwner",
      "outputs": [
        {
          "internalType": "address",
          "name": "",
          "type": "address"
        }
      ],
      "stateMutability": "view",
      "type": "function"
    },
    {
      "inputs": [],
      "name": "totalStaked",
      "outputs": [
        {
          "internalType": "uint256",
          "name": "",
          "type": "uint256"
        }
      ],
      "stateMutability": "view",
      "type": "function"
    },
    {
      "inputs": [
        {
          "internalType": "address",
          "name": "newOwner",
          "type": "address"
        }
      ],
      "name": "transferOwnership",
      "outputs": [],
      "stateMutability": "nonpayable",
      "type": "function"
    },
    {
      "inputs": [],
      "name": "unpause",
      "outputs": [],
      "stateMutability": "nonpayable",
      "type": "function"
    },
    {
      "inputs": [],
      "name": "updateRewardAmount",
      "outputs": [],
      "stateMutability": "nonpayable",
      "type": "function"
    },
    {
      "inputs": [
        {
          "internalType": "address",
          "name": "newImplementation",
          "type": "address"
        }
      ],
      "name": "upgradeTo",
      "outputs": [],
      "stateMutability": "nonpayable",
      "type": "function"
    },
    {
      "inputs": [
        {
          "internalType": "address",
          "name": "newImplementation",
          "type": "address"
        },
        {
          "internalType": "bytes",
          "name": "data",
          "type": "bytes"
        }
      ],
      "name": "upgradeToAndCall",
      "outputs": [],
      "stateMutability": "payable",
      "type": "function"
    },
    {
      "inputs": [
        {
          "internalType": "address",
          "name": "",
          "type": "address"
        }
      ],
      "name": "userRewardPerTokenPaid",
      "outputs": [
        {
          "internalType": "uint256",
          "name": "",
          "type": "uint256"
        }
      ],
      "stateMutability": "view",
      "type": "function"
    },
    {
      "inputs": [
        {
          "internalType": "uint256",
          "name": "tokenId",
          "type": "uint256"
        }
      ],
      "name": "withdraw",
      "outputs": [],
      "stateMutability": "nonpayable",
      "type": "function"
    }
  ],
  "bytecode": "0x60a060409080825234620001a6573060805273430000000000000000000000000000000000000290813b15620001a65763784c3b3d60e11b8152600090818160048183875af180156200019c576200018a575b5090803b156200014c578251634e606c4760e01b8152828160048183865af18015620001805790839162000168575b5050803b156200014c578180916024855180948193631d70c8d360e31b83523360048401525af18015620001425790829162000150575b5050732536fe9ab3f511540f2f9e2ec2a805005c3dd800803b156200014c5781809160248551809481936336b91f2b60e01b83523360048401525af18015620001425762000127575b82516130ef9081620001d682396080518181816119c001528181611af20152611e430152f35b620001338291620001ab565b6200013f578062000101565b80fd5b83513d84823e3d90fd5b5080fd5b6200015b90620001ab565b6200013f578038620000b8565b6200017390620001ab565b6200014c57813862000081565b84513d85823e3d90fd5b6200019590620001ab565b3862000052565b84513d84823e3d90fd5b600080fd5b6001600160401b038111620001bf57604052565b634e487b7160e01b600052604160045260246000fdfe6040608081526004908136101561001557600080fd5b600091823560e01c80628cc262146127035780630700037d146126cb578063150b7a021461264957806319479932146125d257806319762143146125915780631c1f78eb1461256b5780631caaa4871461253a5780632e1a7d4d1461202e5780633659cfe614611e1b5780633f4ba83a14611dbb5780633fc6df6e14611d925780634f1ef28614611a7757806352d1902d146119a35780635c975abb1461197f5780636061ffc3146119395780636b2d057d1461188b578063715018a61461182c578063728e616f146117fd57806372e553991461124157806372f702f31461121857806380faa57d146111fb5780638129fc1c14611082578063817b1cd2146110625780638456cb5914610fff5780638b87634714610fc75780638da5cb5b14610f9f57806397d7577614610f70578063a694fc3a14610bd9578063b88a802f1461092b578063c212779314610504578063cc1a378f14610445578063cd3daf9d14610421578063f2fde38b14610379578063f454249414610359578063f7c618c11461032c5763fa9465d5146101ac57600080fd5b346103285782600319360112610328576001600160a01b039081610134541633036102bf576101d9612a0a565b610132556101e56129f7565b6101315561012e908282541690816101fb578580f35b60209060248651809481936370a0823160e01b835230908301525afa80156102b557859061027c575b61023391506101335490612826565b8061023d57808580f35b7fac24935fd910bc682b5ccb1a07b718cadf8cf2f6d1404c4f3ddc3662dae40e299260209261026b83612cd8565b54169351908152a238808080808580f35b506020813d6020116102ad575b816102966020938361279b565b810103126102a8576102339051610224565b600080fd5b3d9150610289565b84513d87823e3d90fd5b608490602084519162461bcd60e51b8352820152602a60248201527f43616c6c6572206973206e6f742052657761726473446973747269627574696f60448201527f6e20636f6e7472616374000000000000000000000000000000000000000000006064820152fd5b8280fd5b5050346103555781600319360112610355576020906001600160a01b0361012e54169051908152f35b5080fd5b50503461035557816003193601126103555760209061013a549051908152f35b503461032857602036600319011261032857610393612729565b9161039c612a6e565b6001600160a01b038316156103b857836103b584612c07565b80f35b906020608492519162461bcd60e51b8352820152602660248201527f4f776e61626c653a206e6577206f776e657220697320746865207a65726f206160448201527f64647265737300000000000000000000000000000000000000000000000000006064820152fd5b50503461035557816003193601126103555760209061043e612a0a565b9051908152f35b50903461032857602036600319011261032857813591610463612a6e565b821561049c5750816020917ffb46ca5a5e06d4540d6387b930a7c978bce0db5f449ec6b3f5d07c6e1d44f2d39361013a5551908152a180f35b6020608492519162461bcd60e51b8352820152602860248201527f726577617264206475726174696f6e692073686f756c64206265206c6f6e676560448201527f72207468616e20300000000000000000000000000000000000000000000000006064820152fd5b50903461032857610514366127d9565b909161051e612ac6565b610526612b1b565b61052e612a0a565b61013290815561053c6129f7565b926101319384553315159081610884575b801561084157875b8181106105655788600160c95580f35b6105708183896129d1565b35610579612b1b565b610581612a0a565b85558361058c6129f7565b885561079c575b6001600160a01b038061012d54168751906331a9108f60e11b8252838c8301528c60209360249385818681875afa9283156107915792610755575b503391160361071457808d913b15610355578951632142170760e11b815233818f01908152306020820152604081018790529091839183919082908490829060600103925af1801561070a576106f2575b5050338c526101388252878c20908154680100000000000000008110156106e0578461065561066e926001958682018155612cc0565b90919082549060031b91821b91600019901b1916179055565b838d526101398352888d20336001600160a01b03198254161790556101379081549283018093116106cf57505586519182526001929133917f9e71bc8eea02a63969f509818f2dafb9254532904319f9dbda79b67bd34a5f3d91a201610555565b8d60118e634e487b7160e01b835252fd5b508c60418d634e487b7160e01b835252fd5b6106fb90612755565b610706578b3861061f565b8b80fd5b8a513d84823e3d90fd5b60648c601984868d519362461bcd60e51b85528401528201527f53656e646572206d757374206f776e2074686520746f6b656e000000000000006044820152fd5b9091508481813d831161078a575b61076d818361279b565b81010312610786575181811681036107865790386105ce565b8e80fd5b503d610763565b8c51903d90823e3d90fd5b7fe18754a2d63e1e9c2a4f61712ccd2c8df6dfb1eae9f53b2158e316c62823ce2a6107c633612889565b338c528b610839610136926020908482528b8420558a8a549361013580845285838320556001600160a01b0361012e54169684528282205493522054908b51948594339186919594939060809360a08401976001600160a01b038093168552602085015216604083015260608201520152565b0390a1610593565b606487602086519162461bcd60e51b8352820152601560248201527f43616e6e6f74207374616b65203020746f6b656e7300000000000000000000006044820152fd5b7fe18754a2d63e1e9c2a4f61712ccd2c8df6dfb1eae9f53b2158e316c62823ce2a6108ae33612889565b338a526101369081602052868b205584546109238b8289610135928360205220556001600160a01b0361012e541693602052888d205490602052888d2054908951948594339186919594939060809360a08401976001600160a01b038093168552602085015216604083015260608201520152565b0390a161054d565b5034610328578260031936011261032857610944612ac6565b61094c612b1b565b610954612a0a565b6101329081556109626129f7565b6101315533610b49575b50338352602061013881528284205415610b09576001600160a01b039061012e928284541690816109a1575b86600160c95580f35b6109ae61013a544261287c565b61012f5490610e108201809211610af6579084929111610a3f575b50505033855261013681528385209182549386856109e8575b50610998565b7f540798df468d7b23d11f156fdb954cb19ad414d150722a7b6d55ba369dea792e9455610133610a19868254612826565b9055610a29853384845416612d54565b541693519283523392a3388080808080866109e2565b60248751809481936370a0823160e01b835230908301525afa8015610aec578690610abd575b610a7491506101335490612826565b80610a81575b81816109c9565b610a8a81612cd8565b7fac24935fd910bc682b5ccb1a07b718cadf8cf2f6d1404c4f3ddc3662dae40e298284865416928751908152a238610a7a565b508181813d8311610ae5575b610ad3818361279b565b810103126102a857610a749051610a65565b503d610ac9565b85513d88823e3d90fd5b602489601185634e487b7160e01b835252fd5b606492519162461bcd60e51b8352820152601760248201527f5468657265206973206e6f207374616b6564204e46542e0000000000000000006044820152fd5b7fe18754a2d63e1e9c2a4f61712ccd2c8df6dfb1eae9f53b2158e316c62823ce2a90610b7433612889565b33808752610136602081815287892093909355925461013580845287892082905561012e54948452878920549084528789205488516001600160a01b0390961686529385019190915260408401919091526060830152608082015260a090a13861096c565b509190346103555760208060031936011261032857833591610bf9612ac6565b610c01612b1b565b610c09612a0a565b610132908155610c176129f7565b6101319081553315159081610ee0575b610c2f612b1b565b610c37612a0a565b8355610c416129f7565b9055610e3c575b506001600160a01b038061012d5416908251906331a9108f60e11b825285888301528482602481865afa918215610e32578792610df6575b5033911603610db457803b15610db0578151632142170760e11b815233878201908152306020820152604081018690529091869183919082908490829060600103925af18015610da657908591610d8e575b5050338452610138825280842080549068010000000000000000821015610d7b576106558286926001610d0795018155612cc0565b8284526101398252808420336001600160a01b031982541617905561013780549060018201809211610d68577f9e71bc8eea02a63969f509818f2dafb9254532904319f9dbda79b67bd34a5f3d9495965055519283523392a2600160c95580f35b602486601189634e487b7160e01b835252fd5b602486604189634e487b7160e01b835252fd5b610d9790612755565b610da2578338610cd2565b8380fd5b82513d87823e3d90fd5b8480fd5b6064868484519162461bcd60e51b8352820152601960248201527f53656e646572206d757374206f776e2074686520746f6b656e000000000000006044820152fd5b9091508481813d8311610e2b575b610e0e818361279b565b81010312610e2757518181168103610e27579038610c80565b8680fd5b503d610e04565b84513d89823e3d90fd5b7fe18754a2d63e1e9c2a4f61712ccd2c8df6dfb1eae9f53b2158e316c62823ce2a90610e6733612889565b90338752610136918286528488205554610ed761013580875282868a20556001600160a01b0361012e54169387528589205490875285892054908651948594339186919594939060809360a08401976001600160a01b038093168552602085015216604083015260608201520152565b0390a138610c48565b7fe18754a2d63e1e9c2a4f61712ccd2c8df6dfb1eae9f53b2158e316c62823ce2a610f0a33612889565b33808a52610136808952878b20929092558554610135808a52888c2082905561012e54938a52888c2054908a52888c205489516001600160a01b039095168552602085019290925260408401929092526060830191909152608082015260a090a1610c27565b505034610355578160031936011261035557602090517343000000000000000000000000000000000000028152f35b5050346103555781600319360112610355576020906001600160a01b03609754169051908152f35b50503461035557602036600319011261035557806020926001600160a01b03610fee612729565b168152610135845220549051908152f35b50503461035557816003193601126103555760207f62e78cea01bee320cd4e420270b5ea74000d11b0c9f74754ebdbfc544b05a2589161103d612a6e565b611045612b1b565b61104d612b1b565b600160ff1960fb54161760fb5551338152a180f35b505034610355578160031936011261035557602090610137549051908152f35b503461032857826003193601126103285782549060ff8260081c1615908180926111ee575b80156111d7575b1561116e575060ff198281166001178555918161115d575b506110e060ff855460081c166110db81612c4f565b612c4f565b6110e933612c07565b83549161111660ff8460081c166110ff81612c4f565b61110881612c4f565b600160c9556110db81612c4f565b60fb541660fb55611125578280f35b61ff001916825551600181527f7f26b83ff96e1f2b6a682f133852f6798a09c465da95921460cefb384740249890602090a138808280f35b61ffff1916610101178455386110c6565b608490602085519162461bcd60e51b8352820152602e60248201527f496e697469616c697a61626c653a20636f6e747261637420697320616c72656160448201527f647920696e697469616c697a65640000000000000000000000000000000000006064820152fd5b50303b1580156110ae5750600160ff8416146110ae565b50600160ff8416106110a7565b50503461035557816003193601126103555760209061043e6129f7565b5050346103555781600319360112610355576020906001600160a01b0361012d54169051908152f35b50903461032857611251366127d9565b909161125b612ac6565b611263612b1b565b61126b612a0a565b6101329081556112796129f7565b610131553315159283611757575b801561171457865b81811061129f5787600160c95580f35b6112aa8183886129d1565b35906112b4612b1b565b6112bc612a0a565b8455856112c76129f7565b6101315561166f575b818952610139916020928084526001600160a01b03906112f78c838a339220541614612b6b565b8161012e54168061150d575b50828c5280855261131b8c838a339220541614612b6b565b6113258333612f60565b60001991908281146114cb578d903382528a61013892838a5220548481019081116114b6578f611376611394938e8c936113688896338352878752838320612cc0565b969054953383525220612cc0565b91909260031b1c9082549060031b91821b91600019901b1916179055565b338e528652888d20805480156114a2578301906113c56113b48383612cc0565b8154906000199060031b1b19169055565b55838d528552878c206001600160a01b03198154169055610137805491820191821161148f575561012d548b9116803b15610355578751632142170760e11b815230818d01908152336020820152604081018590529091839183919082908490829060600103925af180156114855761146d575b50507f7084f5476618d8e60b11ef0d7d3f06914655adb8793e28ff7f018d4c76d505d560019387519283523392a20161128f565b61147690612755565b611481578938611439565b8980fd5b88513d84823e3d90fd5b60248d60118e634e487b7160e01b835252fd5b5060248e60318f634e487b7160e01b835252fd5b505060248e60118f634e487b7160e01b835252fd5b60648d888c519162461bcd60e51b8352820152600f60248201527f546f6b656e206e6f7420666f756e6400000000000000000000000000000000006044820152fd5b61151a61013a544261287c565b61012f5490610e10820180921161165b571161159d575b338d526101368652888d208d8154918261154e575b505050611303565b5561013361155d828254612826565b905561156a813384612d54565b89519081527f540798df468d7b23d11f156fdb954cb19ad414d150722a7b6d55ba369dea792e873392a338808d81611546565b8c89516370a0823160e01b81528d30908201528781602481865afa9182156116505790839261161d575b50610133546115d591612826565b87816115e4575b505050611531565b8161160f7fac24935fd910bc682b5ccb1a07b718cadf8cf2f6d1404c4f3ddc3662dae40e2993612cd8565b8c51908152a28038876115dc565b809250888092503d8311611649575b611636818361279b565b810103126102a8575181906115d56115c7565b503d61162c565b8b51903d90823e3d90fd5b5060248e60118f634e487b7160e01b835252fd5b7fe18754a2d63e1e9c2a4f61712ccd2c8df6dfb1eae9f53b2158e316c62823ce2a61169933612889565b338b528a61170c610136926020908482528a8420558989549361013580845285838320556001600160a01b0361012e54169684528282205493522054908a51948594339186919594939060809360a08401976001600160a01b038093168552602085015216604083015260608201520152565b0390a16112d0565b606486602085519162461bcd60e51b8352820152601860248201527f43616e6e6f74207769746864726177203020746f6b656e7300000000000000006044820152fd5b7fe18754a2d63e1e9c2a4f61712ccd2c8df6dfb1eae9f53b2158e316c62823ce2a61178133612889565b3389526101369081602052858a205583546117f56101358060205282888d20556001600160a01b0361012e541693602052878c205490602052878c2054908851948594339186919594939060809360a08401976001600160a01b038093168552602085015216604083015260608201520152565b0390a1611287565b50503461035557816003193601126103555760209051732536fe9ab3f511540f2f9e2ec2a805005c3dd8008152f35b8334611888578060031936011261188857611845612a6e565b60006001600160a01b036097546001600160a01b03198116609755167f8be0079c531659141344cd1fd0a4f28419497f9722a3daafe3b4186f6b6457e08280a380f35b80fd5b82843461188857602090816003193601126118885782906001600160a01b036118b2612729565b1681526101388352818120908251808584549182815201908194845286842090845b81811061192557505050816118ea91038261279b565b83519485948186019282875251809352850193925b82811061190e57505050500390f35b8351855286955093810193928101926001016118ff565b8254845292880192600192830192016118d4565b50503461035557816003193601126103555760a09061012f5490610130549061013154610132549161013354938151958652602086015284015260608301526080820152f35b50503461035557816003193601126103555760209060ff60fb541690519015158152f35b508234611888578060031936011261188857506001600160a01b037f0000000000000000000000000000000000000000000000000000000000000000163003611a0f57602082517f360894a13ba1a3210667c828492db98dca3e2076cc3735a920a3ca505d382bbc8152f35b6020608492519162461bcd60e51b8352820152603860248201527f555550535570677261646561626c653a206d757374206e6f742062652063616c60448201527f6c6564207468726f7567682064656c656761746563616c6c00000000000000006064820152fd5b50908060031936011261032857611a8c612729565b906024359067ffffffffffffffff8211610db05736602383011215610db05781840135611ab8816127bd565b611ac48351918261279b565b81815286602094858301933660248284010111610328578060248893018637830101526001600160a01b03807f00000000000000000000000000000000000000000000000000000000000000001690611b1f823014156128ef565b611b4e7f360894a13ba1a3210667c828492db98dca3e2076cc3735a920a3ca505d382bbc928284541614612960565b611b56612a6e565b7f4910fdfa16fed3260ed0e7147f7cc6da11a60208b5b9406d12a635614ffd91435460ff1615611b90575050505050506103b59150612eb3565b8693949596169085516352d1902d60e01b815287818a81865afa60009181611d63575b50611c20576084898989519162461bcd60e51b8352820152602e60248201527f45524331393637557067726164653a206e657720696d706c656d656e7461746960448201527f6f6e206973206e6f7420555550530000000000000000000000000000000000006064820152fd5b979192949795939503611cfb5750611c3784612eb3565b7fbc7cd75a20ee27fd9adebab32041f755214dbc6bffa90cc0225b39da2e5c2d3b600080a2815115801590611cf3575b611c74575b505050505080f35b611ce8946000927f206661696c656400000000000000000000000000000000000000000000000000837f416464726573733a206c6f772d6c6576656c2064656c65676174652063616c6c86955198611ccb8a61277f565b60278a528901528701525190845af4611ce2612fb6565b91612fe6565b503880808080611c6c565b506001611c67565b6084908684519162461bcd60e51b8352820152602960248201527f45524331393637557067726164653a20756e737570706f727465642070726f7860448201527f6961626c655555494400000000000000000000000000000000000000000000006064820152fd5b9091508881813d8311611d8b575b611d7b818361279b565b810103126102a857519038611bb3565b503d611d71565b5050346103555781600319360112610355576020906001600160a01b0361013454169051908152f35b50503461035557816003193601126103555760207f5db9ee0a495bf2e6ff9c91a7834c1ba4fdd244a5e8aa4e537bd38aeae4b073aa91611df9612a6e565b611e01612bb6565b611e09612bb6565b60ff1960fb541660fb5551338152a180f35b50903461032857602080600319360112610da257611e37612729565b916001600160a01b03807f000000000000000000000000000000000000000000000000000000000000000016611e6f813014156128ef565b611e9e7f360894a13ba1a3210667c828492db98dca3e2076cc3735a920a3ca505d382bbc918383541614612960565b611ea6612a6e565b8251908482019282841067ffffffffffffffff851117612019578385528883527f4910fdfa16fed3260ed0e7147f7cc6da11a60208b5b9406d12a635614ffd91435460ff1615611f00575050505050506103b59150612eb3565b8693949596169085516352d1902d60e01b815287818a81865afa60009181611fea575b50611f90576084898989519162461bcd60e51b8352820152602e60248201527f45524331393637557067726164653a206e657720696d706c656d656e7461746960448201527f6f6e206973206e6f7420555550530000000000000000000000000000000000006064820152fd5b979192949795939503611cfb5750611fa784612eb3565b7fbc7cd75a20ee27fd9adebab32041f755214dbc6bffa90cc0225b39da2e5c2d3b600080a2815115801590611fe257611c7457505050505080f35b506000611c67565b9091508881813d8311612012575b612002818361279b565b810103126102a857519038611f23565b503d611ff8565b604188634e487b7160e01b6000525260246000fd5b5090346103285760209081600319360112610da25782359261204e612ac6565b612056612b1b565b61205e612a0a565b61013290815561206c6129f7565b61013190815533151590816124aa575b612084612b1b565b61208c612a0a565b83556120966129f7565b9055612406575b508385526101398084526001600160a01b03906120c03383868a20541614612b6b565b8161012e5416806122a2575b508587528085526120e33383868a20541614612b6b565b6120ed8633612f60565b60001991908281146122605733895261013890818852868a205484810190811161224d578861137661212e938a8e6113688896338352878752838320612cc0565b33895286528488208054801561223a5783019061214e6113b48383612cc0565b5586885285528387206001600160a01b031981541690556101378054918201918211612227575561012d5416908590823b15610355578351632142170760e11b8152309181019182523360208301526040820187905292839182908490829060600103925af18015610da6576121f2575b50907f7084f5476618d8e60b11ef0d7d3f06914655adb8793e28ff7f018d4c76d505d591519283523392a2600160c95580f35b9361221f7f7084f5476618d8e60b11ef0d7d3f06914655adb8793e28ff7f018d4c76d505d5939295612755565b9390916121bf565b602488601186634e487b7160e01b835252fd5b60248a603188634e487b7160e01b835252fd5b60248b601189634e487b7160e01b835252fd5b6064858888519162461bcd60e51b8352820152600f60248201527f546f6b656e206e6f7420666f756e6400000000000000000000000000000000006044820152fd5b6122af61013a544261287c565b61012f5490610e1082018092116123f35711612332575b338852610136865284882088815491826122e3575b5050506120cc565b556101336122f2828254612826565b90556122ff813384612d54565b85519081527f540798df468d7b23d11f156fdb954cb19ad414d150722a7b6d55ba369dea792e873392a3388088816122db565b84516370a0823160e01b815230858201528681602481855afa9081156123e9579082918a916123b2575b506101335461236a91612826565b8781612379575b5050506122c6565b816123a47fac24935fd910bc682b5ccb1a07b718cadf8cf2f6d1404c4f3ddc3662dae40e2993612cd8565b8851908152a2803887612371565b809250888092503d83116123e2575b6123cb818361279b565b810103126123de5751819061236a61235c565b8880fd5b503d6123c1565b86513d8b823e3d90fd5b60248a601188634e487b7160e01b835252fd5b7fe18754a2d63e1e9c2a4f61712ccd2c8df6dfb1eae9f53b2158e316c62823ce2a9061243133612889565b903388526101369182875285892055546124a161013580885282878b20556001600160a01b0361012e5416938852868a2054908852868a2054908751948594339186919594939060809360a08401976001600160a01b038093168552602085015216604083015260608201520152565b0390a13861209d565b7fe18754a2d63e1e9c2a4f61712ccd2c8df6dfb1eae9f53b2158e316c62823ce2a6124d433612889565b33808b52610136808a52888c20929092558554610135808b52898d2082905561012e54938b52898d2054908b52898d20548a516001600160a01b039095168552602085019290925260408401929092526060830191909152608082015260a090a161207c565b503461032857602036600319011261032857816020936001600160a01b039235815261013985522054169051908152f35b50503461035557816003193601126103555760209061043e6101305461013a5490612849565b8334611888576020366003190112611888576125ab612729565b6125b3612a6e565b6001600160a01b0361013491166001600160a01b031982541617905580f35b8334611888576080366003190112611888576125ec612729565b6125f461273f565b606435906001600160a01b03808316809303610db057612612612a6e565b6001600160a01b0319938161012d91168582541617905561012e91168382541617905560443561013a556101349182541617905580f35b503461032857608036600319011261032857612663612729565b5061266c61273f565b506064359067ffffffffffffffff90818311610db05736602384011215610db057820135908111610da2573691016024011161035557602090517f150b7a02000000000000000000000000000000000000000000000000000000008152f35b50503461035557602036600319011261035557806020926001600160a01b036126f2612729565b168152610136845220549051908152f35b5050346103555760203660031901126103555760209061043e612724612729565b612889565b600435906001600160a01b03821682036102a857565b602435906001600160a01b03821682036102a857565b67ffffffffffffffff811161276957604052565b634e487b7160e01b600052604160045260246000fd5b6060810190811067ffffffffffffffff82111761276957604052565b90601f8019910116810190811067ffffffffffffffff82111761276957604052565b67ffffffffffffffff811161276957601f01601f191660200190565b9060206003198301126102a85760043567ffffffffffffffff928382116102a857806023830112156102a85781600401359384116102a85760248460051b830101116102a8576024019190565b9190820391821161283357565b634e487b7160e01b600052601160045260246000fd5b8181029291811591840414171561283357565b8115612866570490565b634e487b7160e01b600052601260045260246000fd5b9190820180921161283357565b6128ec9060406001600160a01b0361289f612a0a565b921691670de0b6b3a76400006128da6128c76000938685526101356020528585205490612826565b8584526101386020528484205490612849565b0492815261013660205220549061287c565b90565b156128f657565b608460405162461bcd60e51b815260206004820152602c60248201527f46756e6374696f6e206d7573742062652063616c6c6564207468726f7567682060448201527f64656c656761746563616c6c00000000000000000000000000000000000000006064820152fd5b1561296757565b608460405162461bcd60e51b815260206004820152602c60248201527f46756e6374696f6e206d7573742062652063616c6c6564207468726f7567682060448201527f6163746976652070726f787900000000000000000000000000000000000000006064820152fd5b91908110156129e15760051b0190565b634e487b7160e01b600052603260045260246000fd5b61012f548042106000146128ec57504290565b610137548015612a6657612a36612a2c612a226129f7565b6101315490612826565b6101305490612849565b670de0b6b3a764000090818102918183041490151715612833576128ec91612a5d9161285c565b6101325461287c565b506101325490565b6001600160a01b03609754163303612a8257565b606460405162461bcd60e51b815260206004820152602060248201527f4f776e61626c653a2063616c6c6572206973206e6f7420746865206f776e65726044820152fd5b600260c95414612ad757600260c955565b606460405162461bcd60e51b815260206004820152601f60248201527f5265656e7472616e637947756172643a207265656e7472616e742063616c6c006044820152fd5b60ff60fb5416612b2757565b606460405162461bcd60e51b815260206004820152601060248201527f5061757361626c653a20706175736564000000000000000000000000000000006044820152fd5b15612b7257565b606460405162461bcd60e51b815260206004820152601860248201527f53656e646572206d75737420626520746865206f776e657200000000000000006044820152fd5b60ff60fb541615612bc357565b606460405162461bcd60e51b815260206004820152601460248201527f5061757361626c653a206e6f74207061757365640000000000000000000000006044820152fd5b609754906001600160a01b0380911691826001600160a01b0319821617609755167f8be0079c531659141344cd1fd0a4f28419497f9722a3daafe3b4186f6b6457e0600080a3565b15612c5657565b608460405162461bcd60e51b815260206004820152602b60248201527f496e697469616c697a61626c653a20636f6e7472616374206973206e6f74206960448201527f6e697469616c697a696e670000000000000000000000000000000000000000006064820152fd5b80548210156129e15760005260206000200190600090565b61012f8054428111612d1d5750612cf261013a548361285c565b610130555b4261013155612d0961013a544261287c565b9055612d1961013391825461287c565b9055565b612d28904290612826565b612d4d612d43612d3d61013093845490612849565b8561287c565b61013a549061285c565b9055612cf7565b9060405160208101937fa9059cbb0000000000000000000000000000000000000000000000000000000085526001600160a01b038093166024830152604482015260448152608081019167ffffffffffffffff938284108585111761276957169060c08101938385109085111761276957612e0a93604052602083527f5361666545524332303a206c6f772d6c6576656c2063616c6c206661696c656460a0820152600080958192519082855af1611ce2612fb6565b908151918215928315612e8c575b50505015612e2257565b608460405162461bcd60e51b815260206004820152602a60248201527f5361666545524332303a204552433230206f7065726174696f6e20646964206e60448201527f6f742073756363656564000000000000000000000000000000000000000000006064820152fd5b81929350906020918101031261035557602001519081151582036118885750388080612e18565b803b15612ef6576001600160a01b037f360894a13ba1a3210667c828492db98dca3e2076cc3735a920a3ca505d382bbc91166001600160a01b0319825416179055565b608460405162461bcd60e51b815260206004820152602d60248201527f455243313936373a206e657720696d706c656d656e746174696f6e206973206e60448201527f6f74206120636f6e7472616374000000000000000000000000000000000000006064820152fd5b6001600160a01b03166000526101386020526040600020906000918054925b838110612f90575050505060001990565b82612f9b8284612cc0565b90549060031b1c14612faf57600101612f7f565b9250505090565b3d15612fe1573d90612fc7826127bd565b91612fd5604051938461279b565b82523d6000602084013e565b606090565b919290156130475750815115612ffa575090565b3b156130035790565b606460405162461bcd60e51b815260206004820152601d60248201527f416464726573733a2063616c6c20746f206e6f6e2d636f6e74726163740000006044820152fd5b82519091501561305a5750805190602001fd5b6040519062461bcd60e51b82528160208060048301528251908160248401526000935b8285106130a0575050604492506000838284010152601f80199101168101030190fd5b848101820151868601604401529381019385935061307d56fea26469706673582212207ca81cb7c5f6b8f45bc5218e27a4dc094b94b61c30fdfd96786b7284c76ec83864736f6c63430008180033",
  "linkReferences": {},
  "deployedLinkReferences": {}
}